:100000000C9453000C947B000C947B000C947B00AC
:100010000C947B000C947B000C947B000C947B0074
:100020000C947B000C947B000C947B000C947B0064
:100030000C947B000C947B000C947B000C947B0054
:100040000C94A1010C947B000C9411020C94EB0114
:100050000C947B000C947B000C947B000C947B0034
:100060000C947B000C947B0000000000250028000D
:100070002B0000000000240027002A0004040404D0
:100080000404040402020202020203030303030342
:10009000010204081020408001020408102001021F
:1000A000040810203F0411241FBECFEFD8E0DEBFAC
:1000B000CDBF11E0A0E0B1E0E4E6FEE002C00590B3
:1000C0000D92A232B107D9F722E0A2E2B1E001C05D
:1000D0001D92A232B207E1F710E0C3E5D0E004C000
:1000E0002197FE010E942507C235D107C9F70E945A
:1000F00043020C9430070C940000CF92DF92EF92F1
:10010000FF920F931F93CF93DF936C017A018B01C2
:10011000C0E0D0E0CE15DF0581F0D8016D918D01F2
:10012000D601ED91FC910190F081E02DC601099579
:10013000892B11F02196EECF7E01C701DF91CF917F
:100140001F910F91FF90EF90DF90CF900895089549
:1001500080E090E00895FC01538D448D252F30E020
:10016000842F90E0821B930B541710F0CF960895C4
:1001700001970895FC01918D828D981761F0828D11
:10018000DF01A80FB11D5D968C91928D9F5F9F73CB
:10019000928F90E008958FEF9FEF0895FC01918D6D
:1001A000828D981731F0828DE80FF11D858D90E0DA
:1001B00008958FEF9FEF0895FC01918D228D892F77
:1001C00090E0805C9F4F821B91098F73992708955F
:1001D00085E891E00E94DC0021E0892B09F420E011
:1001E000822F0895FC01848DDF01A80FB11DA35A51
:1001F000BF4F2C91848D90E001968F739927848F47
:10020000A689B7892C93A089B1898C918370806469
:100210008C93938D848D981306C00288F389E02D0A
:1002200080818F7D80830895EF92FF920F931F93BB
:10023000CF93DF93EC0181E0888F9B8D8C8D981399
:1002400005C0E889F989808185FD26C0F62E0B8DD1
:1002500010E00F5F1F4F0F731127E02E8C8DE812F7
:100260000CC00FB607FCFACFE889F989808185FFB9
:10027000F5CFCE010E94F200F1CF8B8DFE01E80F89
:10028000F11DE35AFF4FF0829FB7F8940B8FEA8974
:10029000FB89808180620AC09FB7F894EE89FF894C
:1002A0006083E889F98980818370806480839FBF3F
:1002B00081E090E0DF91CF911F910F91FF90EF903F
:1002C0000895CF93DF93EC01888D8823C9F0EA89E4
:1002D000FB89808185FD05C0A889B9898C9186FD3F
:1002E0000FC00FB607FCF5CF808185FFF2CFA8893C
:1002F000B9898C9185FFEDCFCE010E94F200E7CF46
:10030000DF91CF91089580E090E0892B29F00E9441
:10031000E80081110C9400000895009769F0FC0139
:1003200001900020E9F73197AF01481B590BBC0140
:1003300085E891E00C947D0080E090E008950E94B3
:100340002B071F920F920FB60F9211242F933F93FA
:100350008F939F93AF93BF9380918101909182017E
:10036000A0918301B09184013091800123E0230F9B
:100370002D3720F40196A11DB11D05C026E8230FDD
:100380000296A11DB11D209380018093810190935D
:100390008201A0938301B093840180917C019091AC
:1003A0007D01A0917E01B0917F010196A11DB11D3B
:1003B00080937C0190937D01A0937E01B0937F0197
:1003C000BF91AF919F918F913F912F910F900FBE51
:1003D0000F901F9018951F920F920FB60F92112435
:1003E0002F933F934F935F936F937F938F939F933D
:1003F000AF93BF93EF93FF9385E891E00E94F200E3
:10040000FF91EF91BF91AF919F918F917F916F91EC
:100410005F914F913F912F910F900FBE0F901F90C2
:1004200018951F920F920FB60F9211242F938F934E
:100430009F93EF93FF93E0919501F0919601808156
:10044000E0919B01F0919C0182FD12C0908180910E
:100450009E018F5F8F7320919F01821751F0E09171
:100460009E01F0E0EB57FE4F958F80939E0101C0F7
:100470008081FF91EF919F918F912F910F900FBEEF
:100480000F901F901895CF93DF93CDB7DEB7A1974C
:100490000FB6F894DEBF0FBECDBF789484B58260EE
:1004A00084BD84B5816084BD85B5826085BD85B518
:1004B000816085BD80916E00816080936E00109296
:1004C0008100809181008260809381008091810011
:1004D00081608093810080918000816080938000A2
:1004E0008091B10084608093B1008091B000816000
:1004F0008093B00080917A00846080937A0080912C
:100500007A00826080937A0080917A008160809383
:100510007A0080917A00806880937A001092C100FE
:10052000EEE9F0E02491EAE8F0E084918823C9F054
:1005300090E0880F991FFC01EE58FF4F45915491B0
:10054000FC01E859FF4FA591B4919FB7F894FA01C7
:1005500080812095822380838C91E22FE823EC9385
:100560009FBFE0919501F091960182E08083E09138
:100570009101F09192011082E0919301F091940128
:1005800080E1808310929D01E0919901F0919A01A0
:1005900086E08083E0919701F091980180818061ED
:1005A0008083E0919701F091980180818860808339
:1005B000E0919701F0919801808180688083E091BB
:1005C0009701F091980180818F7D808350E4352ED2
:1005D00030927C0080917A00806480937A008091D0
:1005E0007A0086FDFCCF609178008091790070E000
:1005F000782B072E000C880B990B0E9481056B014C
:100600007C018090780190907901A0907A01B0905F
:100610007B01A50194010E946C0423E333E343E3CF
:100620005FE30E943606A50194010E946D049B01C0
:10063000AC01609378017093790180937A01909373
:100640007B01C701B6010E946C049B01AC010E94B2
:1006500036060E94A9060091760110917701980153
:10066000220F331F220F331FA9014A5D5E4F7A010B
:100670009B01AC010E946D04F7016083718382834A
:1006800093830F5F1F4F033111052CF410937701F3
:100690000093760104C0109277011092760106E271
:1006A00011E060E070E0CB01F801219131914191BE
:1006B00051918F010E946D04F1E006371F07A1F7E9
:1006C00020E030E040EA51E40E94DE046B017C014E
:1006D0004B015C01609322017093230180932401FC
:1006E000909325019B01AC010E94E906882319F033
:1006F00082E191E01AC026013701E89477F82FEFE4
:100700003FEF4FE75FE7C301B2010E94E9068111A5
:100710000FC02FEF3FEF4FE75FE7C301B2010E9429
:10072000D90418162CF486E191E00E948D01A0C036
:100730002FEF3FEF4FE75FE4C701B6010E9431069C
:1007400018161CF48AE191E0F0CF2FEF3FEF4FE74E
:100750005FECC701B6010E94D90487FDF3CF20E00A
:1007600030E0A901C701B6010E94D90487FF0BC080
:100770006DE285E891E00E94140146015701B7FA45
:10078000B094B7F8B0942AE037ED43EA5BE3C501D3
:10079000B4010E946D046B017C010E9450054B0165
:1007A0005C010E947F059B01AC01C701B6010E945C
:1007B0006C042B013C0119A27E0121E2E20EF11C26
:1007C0000E2DDF2CC501B4012AE030E040E050E0FE
:1007D0000E94030749015A01605DF70162937F019E
:1007E000232B242B252B71F7CF010E948D016EE264
:1007F00085E891E00E94140113E01150C9F120E056
:1008000030E040E251E4C301B2010E9436064B01E0
:100810005C010E9450059B0140E050E019A2E02ECF
:10082000FD2C562E632E742EC52ECA01B9012AE066
:1008300030E040E050E00E940307605DF701629302
:100840007F01211531054105510579F7CF010E943E
:100850008D01652D762D872D9C2D0E947F059B0196
:10086000AC01C501B4010E946C042B013C01C5CF51
:100870008EE191E00E948D010E948301A9CEE5E8FE
:10088000F1E01382128288EE93E0A0E0B0E084836E
:100890009583A683B78384E091E09183808385EC80
:1008A00090E09587848784EC90E09787868780EC3A
:1008B00090E0918B808B81EC90E0938B828B82EC2B
:1008C00090E0958B848B86EC90E0978B868B118ED5
:1008D000128E138E148E08955058BB27AA270E949B
:1008E00084040C94F7050E94E90538F00E94F00595
:1008F00020F039F49F3F19F426F40C94E6050EF429
:10090000E095E7FB0C94E005E92F0E94080658F3F8
:10091000BA17620773078407950720F079F4A6F5E4
:100920000C942A060EF4E0950B2EBA2FA02D0B0185
:10093000B90190010C01CA01A0011124FF27591B24
:1009400099F0593F50F4503E68F11A16F040A22F2A
:10095000232F342F4427585FF3CF4695379527959B
:10096000A795F0405395C9F77EF41F16BA0B620B9A
:10097000730B840BBAF09150A1F0FF0FBB1F661FE1
:10098000771F881FC2F70EC0BA0F621F731F841F24
:1009900048F4879577956795B795F7959E3F08F04A
:1009A000B0CF9395880F08F09927EE0F979587950C
:1009B00008950E94BC0508F481E008950E94F204A5
:1009C0000C94F7050E94F00558F00E94E90540F0EC
:1009D00029F45F3F29F00C94E00551110C942B068B
:1009E0000C94E6050E94080668F39923B1F3552399
:1009F00091F3951B550BBB27AA2762177307840732
:100A000038F09F5F5F4F220F331F441FAA1FA9F3C7
:100A100035D00E2E3AF0E0E832D091505040E695B5
:100A2000001CCAF72BD0FE2F29D0660F771F881F16
:100A3000BB1F261737074807AB07B0E809F0BB0B09
:100A4000802DBF01FF2793585F4F3AF09E3F51051D
:100A500078F00C94E0050C942B065F3FE4F3983E8D
:100A6000D4F3869577956795B795F7959F5FC9F706
:100A7000880F911D9695879597F90895E1E0660F87
:100A8000771F881FBB1F621773078407BA0720F000
:100A9000621B730B840BBA0BEE1F88F7E095089569
:100AA0000E94100688F09F5798F0B92F9927B751E8
:100AB000B0F0E1F0660F771F881F991F1AF0BA9502
:100AC000C9F714C0B13091F00E942A06B1E0089530
:100AD0000C942A06672F782F8827B85F39F0B93F22
:100AE000CCF3869577956795B395D9F73EF49095B5
:100AF0008095709561957F4F8F4F9F4F0895E89433
:100B000009C097FB3EF490958095709561957F4F55
:100B10008F4F9F4F9923A9F0F92F96E9BB27939503
:100B2000F695879577956795B795F111F8CFFAF413
:100B3000BB0F11F460FF1BC06F5F7F4F8F4F9F4F44
:100B400016C0882311F096E911C0772321F09EE8A2
:100B5000872F762F05C0662371F096E8862F70E008
:100B600060E02AF09A95660F771F881FDAF7880FE2
:100B70009695879597F90895990F0008550FAA0B38
:100B8000E0E8FEEF16161706E807F907C0F01216A0
:100B90001306E407F50798F0621B730B840B950BA3
:100BA00039F40A2661F0232B242B252B21F40895F8
:100BB0000A2609F4A140A6958FEF811D811D089595
:100BC00097F99F6780E870E060E008959FEF80EC00
:100BD000089500240A9416161706180609060895A3
:100BE00000240A9412161306140605060895092E09
:100BF0000394000C11F4882352F0BB0F40F4BF2B78
:100C000011F460FF04C06F5F7F4F8F4F9F4F0895B7
:100C100057FD9058440F551F59F05F3F71F04795AD
:100C2000880F97FB991F61F09F3F79F08795089592
:100C3000121613061406551FF2CF4695F1DF08C0B1
:100C4000161617061806991FF1CF869571056105CE
:100C500008940895E894BB2766277727CB0197F976
:100C600008950E94BC0508F48FEF08950E9449067C
:100C70000C94F7050E94E90538F00E94F00520F079
:100C8000952311F00C94E0050C94E60511240C94C6
:100C90002B060E94080670F3959FC1F3950F50E054
:100CA000551F629FF001729FBB27F00DB11D639F1E
:100CB000AA27F00DB11DAA1F649F6627B00DA11DC4
:100CC000661F829F2227B00DA11D621F739FB00D6A
:100CD000A11D621F839FA00D611D221F749F3327DA
:100CE000A00D611D231F849F600D211D822F762F73
:100CF0006A2F11249F5750409AF0F1F088234AF050
:100D0000EE0FFF1FBB1F661F771F881F91505040BB
:100D1000A9F79E3F510580F00C94E0050C942B063A
:100D20005F3FE4F3983ED4F3869577956795B79542
:100D3000F795E7959F5FC1F7FE2B880F911D96955C
:100D4000879597F9089519F416F40C94E6050C9418
:100D5000EE060E941006B8F39923C9F3B6F39F5725
:100D6000550B87FF0E94FC060024A0E640EA900194
:100D700080585695979528F4805C660F771F881FDA
:100D800020F026173707480730F4621B730B840BDB
:100D9000202931294A2BA69517940794202531251F
:100DA0004A2758F7660F771F881F20F02617370746
:100DB000480730F4620B730B840B200D311D411D6D
:100DC000A09581F7B901842F9158880F9695879542
:100DD00008950E94BC05880B990B08959F3F31F040
:100DE000915020F4879577956795B795880F911D59
:100DF0009695879597F9089591505040660F771F03
:100E0000881FD2F70895A1E21A2EAA1BBB1BFD0171
:100E10000DC0AA1FBB1FEE1FFF1FA217B307E407D9
:100E2000F50720F0A21BB30BE40BF50B661F771F31
:100E3000881F991F1A9469F7609570958095909511
:100E40009B01AC01BD01CF010895EE0FFF1F05907E
:100E5000F491E02D099481E090E0F8940C9430072F
:040E6000F894FFCF34
:100E64000000000014017D00AB006101DC00BA0049
:100E7400CE006E616E00696E66006F7666000D0AC4
:020E840000006C
:107E0000112484B714BE81FFF0D085E080938100F7
:107E100082E08093C00088E18093C10086E0809377
:107E2000C20080E18093C4008EE0C9D0259A86E02C
:107E300020E33CEF91E0309385002093840096BBD3
:107E4000B09BFECF1D9AA8958150A9F7CC24DD24C4
:107E500088248394B5E0AB2EA1E19A2EF3E0BF2EE7
:107E6000A2D0813461F49FD0082FAFD0023811F036
:107E7000013811F484E001C083E08DD089C08234E0
:107E800011F484E103C0853419F485E0A6D080C0E4
:107E9000853579F488D0E82EFF2485D0082F10E0AE
:107EA000102F00270E291F29000F111F8ED06801E7
:107EB0006FC0863521F484E090D080E0DECF843638
:107EC00009F040C070D06FD0082F6DD080E0C81688
:107ED00080E7D80618F4F601B7BEE895C0E0D1E017
:107EE00062D089930C17E1F7F0E0CF16F0E7DF06D8
:107EF00018F0F601B7BEE89568D007B600FCFDCFD4
:107F0000A601A0E0B1E02C9130E011968C91119780
:107F100090E0982F8827822B932B1296FA010C0160
:107F200087BEE89511244E5F5F4FF1E0A038BF0790
:107F300051F7F601A7BEE89507B600FCFDCF97BE46
:107F4000E89526C08437B1F42ED02DD0F82E2BD052
:107F50003CD0F601EF2C8F010F5F1F4F84911BD097
:107F6000EA94F801C1F70894C11CD11CFA94CF0C13
:107F7000D11C0EC0853739F428D08EE10CD085E9AC
:107F80000AD08FE07ACF813511F488E018D01DD067
:107F900080E101D065CF982F8091C00085FFFCCF94
:107FA0009093C60008958091C00087FFFCCF809118
:107FB000C00084FD01C0A8958091C6000895E0E648
:107FC000F0E098E1908380830895EDDF803219F02E
:107FD00088E0F5DFFFCF84E1DECF1F93182FE3DFCA
:107FE0001150E9F7F2DF1F91089580E0E8DFEE27F6
:047FF000FF270994CA
:027FFE00040479
:0400000300007E007B
:00000001FF
